:1000000013EF11F00000000000EF00F0000000000E
:0A0010000000000000000000F3D71C
:0E001C000101C2B102D08B9801D08B88120076
:0E002A000101C2B102D08B9601D08B8612006C
:0E0038000101C2B102D08D9601D08D8612005A
:0E0046000101C2B102D0899401D08984120058
:0E0054000101C2B102D08B9C01D08B8C120036
:0E0062000101C2B102D08B9401D08B84120038
:0E0070000101C2B102D08B9A01D08B8A12001E
:0E007E000101C2B102D08B9E01D08B8E120008
:0E008C000101C2B102D08A9201D08A82120014
:0E009A000101C2B102D08D9401D08D841200FC
:0E00A8000101C2B102D08F9201D08F821200EE
:0E00B6000101C2B102D08F9401D08F841200DC
:0E00C4000101C2B102D08B9801D08B881200CE
:0E00D2000101C2B102D08B9601D08B861200C4
:0E00E0000101C2B102D08A9401D08A841200BC
:0E00EE000101C2B102D08B9801D08B881200A4
:0E00FC000101C2B102D08B9601D08B8612009A
:0E010A000101C2B102D08F9001D08F8012008F
:0E0118000101C2B102D08B9A01D08B8A120075
:0E0126000101C2B102D08B9801D08B8812006B
:0E0134000101C2B102D08B9801D08B8812005D
:0E0142000101C2B102D08B9601D08B86120053
:0E0150000101C2B102D08B9201D08B8212004D
:0E015E000101C2B102D08B9A01D08B8A12002F
:0E016C000101C2B102D08D9001D08D80120031
:10017A000F0121B302D00000FBD7C2C11CFF12003D
:0E018A00ACB202D00000FCD7C2C1ADFF120023
:0E0198000101C2B102D08B9001D08B80120009
:0E01A6000101C2B102D0899001D089801200FF
:0E01B4000101C2B102D0899801D089881200E1
:0E01C2000101C2B102D0899201D089821200DF
:0E01D0000101C2B102D08B9601D08B861200C5
:0E01DE000101C2B102D08D9201D08D821200BB
:0E01EC000101C2B102D08B9801D08B881200A5
:0E01FA000101C2B102D08B9E01D08B8E12008B
:0E0208000101C2B102D08A9001D08A8012009A
:0E0216000101C2B102D08B9601D08B8612007E
:0E0224000101C2B102D08B9C01D08B8C120064
:10023200F250026EF29E0500FF6A0150FE6E0050FF
:08024200FD6E02BEF28E1200F7
:10024A0068B409D01F0E6614016E0150000A03E15A
:0A025A00010E006E01D0006A1200D0
:10026400C7B409D01F0EC514016E0150000A03E182
:0A027400010E006E01D0006A1200B6
:0A027E00000E82B4010E006E1200A3
:0A028800000E80B8010E006E120097
:0A029200000E84B2010E006E12008F
:0A029C00000E84B6010E006E120081
:0A02A600000E82BE010E006E120071
:0A02B000000E82BC010E006E120069
:0A02BA00000E80B2010E006E12006B
:0A02C400000E80B4010E006E12005F
:0A02CE00000E82B6010E006E120051
:0A02D800000E9EBA010E006E120027
:0A02E200000EACB2010E006E120017
:0A02EC00000E82B8010E006E120031
:0A02F600000E82B8010E006E120027
:0A030000000E81B0010E006E120025
:0A030A00000E82BE010E006E12000C
:10031400AECF01F0ABA202D0AB98AB8801C000F025
:020324001200C5
:0A032600000E82BC010E006E1200F2
:0A033000000E82BA010E006E1200EA
:0A033A00000E82B8010E006E1200E2
:04034400C58412005A
:100348009E96BCC1C9FF52C0BDF153C0BEF154C096
:10035800BFF155C0C0F1C7A421D05250531054105A
:1003680055101BE00101BD51BE11BF11C0110EE1B6
:1003780030C1E1FF31C1E2FF040EE66E2EC100F08C
:100388002FC101F052DF010E006E3AD0010E0101BB
:10039800BD5F000EBE5BBF5BC05BDDD752C0BDF169
:1003A80053C0BEF154C0BFF155C0C0F19EB621D0B4
:1003B80052505310541055101BE00101BD51BE118D
:1003C800BF11C0110EE130C1E1FF31C1E2FF040EDF
:1003D800E66E2EC100F02FC101F027DF010E006E7E
:1003E8000FD0010E0101BD5F000EBE5BBF5BC05B9D
:1003F800DDD7C5BC02D0006A03D0C584020E006EEA
:020408001200E0
:10040A00A19ABCC16AFFAEC0BDF1AFC0BEF1B0C017
:10041A00BFF1B1C0C0F168A422D00001AE51AF1142
:10042A00B011B1111BE00101BD51BE11BF11C011C4
:10043A000EE197C1E1FF98C1E2FF040EE66E95C195
:10044A0000F096C101F0F0DE010E006E3BD0010E05
:10045A000101BD5F000EBE5BBF5BC05BDCD7AEC0F7
:10046A00BDF1AFC0BEF1B0C0BFF1B1C0C0F1A1BA19
:10047A0022D00001AE51AF11B011B1111BE0010140
:10048A00BD51BE11BF11C0110EE197C1E1FF98C164
:10049A00E2FF040EE66E95C100F096C101F0C4DEDB
:1004AA00010E006E0FD0010E0101BD5F000EBE5B92
:1004BA00BF5BC05BDCD766BC02D0006A03D066842F
:0604CA00020E006E12009C
:1004D000AEC0BEF1AFC0BFF1B0C0C0F1B1C0C1F19C
:1004E000A19A6686A1BA20D00001AE51AF11B01119
:1004F000B11119E00101BE51BF11C011C1110CE1D0
:1005000097C1E1FF98C1E2FF030EE66E95C100F0CE
:1005100096C101F08EDE08D0010E0101BE5F000E13
:10052000BF5BC05BC15BDED701016ACFBDF1BC51CF
:10053000000A02E1668A01D0669AA19A6688AEC076
:10054000BEF1AFC0BFF1B0C0C0F1B1C0C1F1A1BA3E
:1005500020D00001AE51AF11B011B11119E001016D
:10056000BE51BF11C011C1110CE197C1E1FF98C18B
:10057000E2FF030EE66E95C100F096C101F059DE70
:1005800008D0010E0101BE5F000EBF5BC05BC15B06
:08059000DED7BDC100F012002E
:0A059800000E81B2010E006E120089
:1005A20052C0BEF153C0BFF154C0C0F155C0C1F139
:1005B2009E96C5869EB61FD05250531054105510A9
:1005C20019E00101BE51BF11C011C1110CE130C1CE
:1005D200E1FF31C1E2FF030EE66E2EC100F02FC132
:1005E20001F026DE08D0010E0101BE5F000EBF5BE6
:1005F200C05BC15BDFD70101C9CFBDF1BC51000AAD
:1006020002E1C58A01D0C59A9E96C58852C0BEF144
:1006120053C0BFF154C0C0F155C0C1F19EB61FD046
:10062200525053105410551019E00101BE51BF1120
:10063200C011C1110CE130C1E1FF31C1E2FF030E73
:10064200E66E2EC100F02FC101F0F2DD08D0010EDE
:100652000101BE5F000EBF5BC05BC15BDFD7BDC1E6
:0406620000F0120092
:0A066600000E86B0010E006E1200B7
:0A067000000E84B4010E006E1200AB
:0A067A00000E82B8010E006E12009F
:0A068400000E82B6010E006E120097
:0A068E00000E82B6010E006E12008D
:10069800AEC0BCF1AFC0BDF1B0C0BEF1B1C0BFF1DA
:1006A800668266A220D00001AE51AF11B011B1111F
:1006B80019E00101BC51BD11BE11BF110CE197C178
:1006C800E1FF98C1E2FF060EE66E95C100F096C103
:1006D80001F0ABDD08D0010E0101BC5F000EBD5B6F
:0806E800BE5BBF5BDED7120010
:0A06F000000E81B4010E006E12002E
:1006FA0052C0BCF153C0BDF154C0BEF155C0BFF1E8
:10070A00C582C5A21FD0525053105410551019E07B
:10071A000101BC51BD11BE11BF110CE130C1E1FF95
:10072A0031C1E2FF060EE66E2EC100F02FC101F0C4
:10073A007BDD08D0010E0101BC5F000EBD5BBE5B14
:06074A00BF5BDFD71200C7
:0407500066841200A9
:0A075400000E82B2010E006E1200CA
:0A075E00000E80B0010E006E1200C4
:1007680052C0BEF153C0BFF154C0C0F155C0C1F171
:100778000101BC6BBD6BBD51120802E1BC518E0872
:1007880008E36CDD005201E004D00101BC4BBD2B35
:10079800F2D70101120EBD5D02E18F0EBC5D03E3CD
:1007A8007B0E006E24D0C580C5A020D052505310B7
:1007B800541055101AE0BE51BF11C011C1110EE1FD
:1007C80030C1E1FF31C1E2FF050EE66E2EC100F037
:1007D8002FC101F02ADD010E006E09D0010E0101C2
:1007E800BE5F000EBF5BC05BC15BDED7006A120054
:0A07F800000E82B6010E006E120022
:0A080200000EA4BA010E006E1200F1
:0C080C00000E0F0121B3010E006E12005F
:0A081800000E82B0010E006E120007
:10082200AEC0BEF1AFC0BFF1B0C0C0F1B1C0C1F146
:100832000101BC6BBD6BBD51120802E1BC518E08B7
:1008420008E302DD005201E004D00101BC4BBD2BE4
:10085200F2D70101120EBD5D02E18F0EBC5D03E312
:100862007B0E006E26D0668066A022D00001AE51BB
:10087200AF11B011B1111BE00101BE51BF11C01186
:10088200C1110EE197C1E1FF98C1E2FF050EE66ECC
:1008920095C100F096C101F0CBDC010E006E09D0CB
:1008A200010E0101BE5F000EBF5BC05BC15BDCD706
:0408B200006A1200C6
:1008B6001DCF01F00F0122A302D02299228901C087
:0408C60000F012002C
:0A08CA00000E82BA010E006E12004B
:0A08D400000E82B6010E006E120045
:0A08DE00000E84B0010E006E12003F
:0A08E800000E82BA010E006E12002D
:0A08F200000E82B6010E006E120027
:0A08FC00000E86B2010E006E12001D
:0A090600000E82B8010E006E120010
:0A091000000E82B8010E006E120006
:0A091A00000E86B4010E006E1200FC
:100924000101BA6BBB6BB3C1B8F1B4C1B9F1B2C1C7
:1009340000F00036009000808BC1E1FF8CC1E2FF23
:1009440000C0E6FF89C100F08AC101F070DC0050EC
:100954000101BA13000EBB13010EB55F000EB65BA6
:10096400B551B61115E086C1E1FF87C1E2FF010E62
:10097400E66E84C100F085C101F059DCB8C1E1FF25
:10098400B9C1E2FF00C0E6FF0101B84BB92BE4D7BF
:1009940086C1E1FF87C1E2FFE66A84C100F085C138
:1009A40001F045DCB8C1E1FFB9C1E2FF00C0E6FFD8
:1009B4000101B751000A05E18DC100F08EC101F0BB
:1009C40036DC0101B751010A05E191C100F092C181
:0E09D40001F02DDCBAC100F0BBC101F0120031
:1009E200086A096A100E0C6E013408360936045082
:1009F200085E0550D8A0053C095ED8B007D0045067
:100A020008260550D8B0053C0926D8900036013694
:060A12000C2EEAD71200D1
:100A18000101B26BB36B80C100F081C101F005DC4C
:100A280000C0B2F1000E0101B36FB2C100F0B3C152
:040A380001F01200B7
:100A3C000101BA6BBB6BB3C1B8F1B4C1B9F1B2C1AE
:100A4C0000F0003600908BC1E1FF8CC1E2FF00C0CA
:100A5C00E6FF89C100F08AC101F019EC01F00050E9
:100A6C000101BA13000EBB13B5C100F0B6C101F001
:100A7C00010EB55F000EB65B0050011018E08BC183
:100A8C00E1FF8CC1E2FFB8C1E9FFB9C1EAFFEECFCB
:100A9C00E6FF89C100F08AC101F019EC01F00050A9
:100AAC000101BA13000EBB13B84BB92BDDD7B751EC
:100ABC00000A06E18DC100F08EC101F019EC01F0C5
:100ACC000101B751010A06E191C100F092C101F098
:0E0ADC0019EC01F0BAC100F0BBC101F012002C
:100AEA002CC1E1FF2DC1E2FFABC1E9FFACC1EAFFB6
:100AFA00EECFE6FF2AC100F02BC101F019EC01F09C
:040B0A00006A12006B
:100B0E00ABC1ADF182DF88C1B2F1AD0EB36F010E94
:100B1E00B46F010EB56F000EB66F010EB76F87DFA3
:100B2E0088C1B2F1AC0E0101B36F010EB46F020EAB
:100B3E00B56F000EB66FB76BEEDEACC100F01200F3
:100B4E000101AF6B050EAF5D0AE2AF51AD25E16E4F
:100B5E00000EAE21E26E200EE66EAF2BF3D7AF5134
:100B6E00AD25E16E000EAE21E26EE66AAF07AF5123
:100B7E00AD25B06F000EAE21B16F0A0E046E000EE1
:100B8E00056EABC100F0ACC101F024DF08C000F06F
:100B9E0009C001F0300E0026B0C1E1FFB1C1E2FF85
:100BAE0000C0E6FF0A0E046E000E056EABC100F02B
:100BBE00ACC101F00FDF00C0ABF101C0ACF1000E13
:100BCE00011802E1000E001801E102D0AF07CFD7E5
:020BDE00120003
:100BE000ABC1ADF1ACC1AEF117DF88C1B2F1AD0E52
:100BF000B36F010EB46F020EB56F000EB66FB76B18
:040C00001DDF1200E2
:100C04008A0E0101786F010E796FC20E7A6F010EA0
:100C14007B6F140E7C6F030E7D6F000E7E6F000ED3
:100C24007F6FD80E746F020E756F000E766F000E14
:100C3400776FE20E6C6F020E6D6F000E6E6F000E1A
:100C44006F6FAC8A900EAB6E948E949C9EAA03D068
:080C5400AECF00F0FBD7120047
:100C5C00640E0101266F020E276F000E286F000E26
:100C6C00296F680E1A6F070E1B6F000E1C6F000E9B
:100C7C001D6FFA0E1E6F060E1F6F000E206F000EFA
:100C8C00216FA20E226F050E236FBC0E246F010E76
:100C9C00256F480E326F030E336FBC0E346F010E8E
:100CAC00356F440E366F030E376F000E386F000E23
:100CBC00396F949894968B988B9694889486C79E4B
:080CCC00C79C380EC66E120031
:100CD400086A080E0C6E003408360450085ED8B05A
:0E0CE40002D00826D89000360C2EF5D712004C
:100CF2007A0E0101786F010E796FC20E7A6F010EC2
:100D02007B6FB60E7C6F080E7D6F000E7E6F000E3D
:100D12007F6F020E746F080E756F000E766F000EF5
:100D2200776F0C0E6C6F080E6D6F000E6E6F000EFB
:100D32006F6F0F01218B900E226F98849892A4AA54
:0A0D420003D01DCF00F0FBD7120014
:100D4C0021D0CF0EAF6EAC9457DF6BD0670EAF6E69
:100D5C00AC9452DF66D0CF0EAF6EAC844DDF61D059
:100D6C00670EAF6EAC8448DF5CD0440EAF6EAC84C3
:100D7C0043DF57D0220EAF6EAC843EDF52D0060E4E
:100D8C00006E58D00101000E006EA41908E100504D
:100D9C00A31905E1120EA21902E1A151C00AD1E07A
:100DAC00000E006EA41908E10050A31905E1250EF0
:100DBC00A21902E1A151800AC9E0000E006EA4192B
:100DCC0008E10050A31905E14B0EA21902E1A15153
:100DDC00000AC1E0000E006EA41908E10050A3192E
:100DEC0005E1960EA21902E1A151000AB9E0000E2C
:100DFC00006EA41908E10050A31905E1E10EA21937
:100E0C0002E1A151000AB1E0A451000A08E1A3518A
:100E1C00010A05E1A251C20A02E1A151000AAAE0AD
:100E2C00AED78A0E2A6F010E2B6FC20E2C6F010EDD
:060E3C002D6F006A120098
:100E4200A1C1F6FFA2C1F7FFA3C1F8FF0900F5CFC8
:100E520080F10900F5CF81F10900F5CF82F1090097
:100E6200F5CF83F1040E0101A125F66E000EA22139
:100E7200F76E000EA321F86E0900F5CF8DF109007F
:100E8200F5CF8EF10900F5CF8FF10900F5CF90F182
:100E9200080EA125F66E000EA221F76E000EA32108
:100EA200F86E0900F5CF91F10900F5CF92F1090032
:100EB200F5CF93F10900F5CF94F10C0EA125F66E52
:100EC200000EA221F76E000EA321F86E0900F5CFE5
:100ED20089F10900F5CF8AF10900F5CF8BF10900FC
:100EE200F5CF8CF1100EA125F66E000EA221F76E41
:100EF200000EA321F86E0900F5CF84F10900F5CFA9
:100F020085F10900F5CF86F10900F5CF87F11200CE
:100F120038D00F0120870D0E1F6F040E1E6F218522
:100F2200E7DE7ED00F012087060E1F6F820E1E6F36
:100F32002185DEDE75D00F012087030E1F6F400E64
:100F42001E6F2185D5DE6CD00F012087010E1F6F29
:100F5200A00E1E6F2185CCDE63D00F012087010E0B
:100F62001F6F150E1E6F2185C3DE5AD00F01208719
:100F72001F6B8A0E1E6F2185BBDE52D0060E006EDD
:100F820059D0000E006E0101A41908E10050A31906
:100F920005E1120EA21902E1A151C00ABAE0000E47
:100FA200006EA41908E10050A31905E1250EA2194B
:100FB20002E1A151800AB6E0000E006EA41908E118
:100FC2000050A31905E14B0EA21902E1A151000A3A
:100FD200B2E0000E006EA41908E10050A31905E169
:100FE200960EA21902E1A151000AAEE0000E006EB7
:100FF200A41908E10050A31905E1E10EA21902E1CA
:10100200A151000AAAE0A451000A08E1A351010A71
:1010120005E1A251C20A02E1A151000AA7E0AED73E
:1010220001017A0E2A6F010E2B6FC20E2C6F010E78
:061032002D6F006A1200A0
:101038001F0E0101A115016E01C0A1F10150000AA6
:1010480002E1010EA16F0A0E046EA1C100F03EDE9E
:1010580008C000F000C0A2F10A0E046EA1C100F0A1
:1010680035DE00C0ACF1AC37AC91AC37AC91AC37E5
:10107800AC91AC37AC91A251AC13040EAB6FACDDA4
:02108800120054
:10108A000D0E046EA1C100F020DE08C000F000C001
:10109A00A1F10050000A03E1010E0101A16F010153
:1010AA000A0E046EA1C100F010DE08C000F000C0F4
:1010BA00A2F10A0E046EA1C100F007DE00C0ACF175
:1010CA00AC37AC91AC37AC91AC37AC91AC37AC9196
:0C10DA00A251AC13050EAB6F7EDD1200BE
:1010E600640E046E000E056EA1C100F0A2C101F0EF
:1010F60075DC08C000F009C001F000C0A5F101C010
:10110600A6F1A5C1A1F1A6C1A2F10A0E046E000EB8
:10111600056EA5C100F0A6C101F060DC08C000F0B4
:1011260009C001F000C0A3F101C0A4F10A0E046ECB
:10113600000E056EA5C100F0A6C101F04FDC040E3D
:10114600026E00C0ACF1025005E00101AC37AC9173
:10115600FF0FFAD70101A351AC13060EAB6F3DDDAD
:02116600120075
:10116800300E0101A125006E000EA221016E000EB5
:10117800A321026E1C0E0024F66E000E0120F76EED
:10118800000E0220F86E0900F5CF70F10900F5CFC6
:1011980071F10900F5CF72F10900F5CF73F1120072
:1011A800180E046EA1C100F091DD08C000F000C067
:1011B800A3F1A3C1A1F10A0E046EA3C100F086DD5C
:1011C80008C000F000C0A2F10A0E046EA3C100F02E
:1011D8007DDD00C0ACF10101AC37AC91AC37AC910E
:1011E800AC37AC91AC37AC91A251AC13020EAB6FDB
:0411F800F3DC120012
:1011FC0021D0CF0EAF6EAC94FFDC6BD0670EAF6E10
:10120C00AC94FADC66D0CF0EAF6EAC84F5DC61D05A
:10121C00670EAF6EAC84F0DC5CD0440EAF6EAC8469
:10122C00EBDC57D0220EAF6EAC84E6DC52D0060E4F
:10123C00006E58D00101000E006EA41908E1005098
:10124C00A31905E1120EA21902E1A151C00AD1E0C5
:10125C00000E006EA41908E10050A31905E1250E3B
:10126C00A21902E1A151800AC9E0000E006EA41976
:10127C0008E10050A31905E14B0EA21902E1A1519E
:10128C00000AC1E0000E006EA41908E10050A31979
:10129C0005E1960EA21902E1A151000AB9E0000E77
:1012AC00006EA41908E10050A31905E1E10EA21982
:1012BC0002E1A151000AB1E0A451000A08E1A351D6
:1012CC00010A05E1A251C20A02E1A151000AAAE0F9
:1012DC00AED78A0E2A6F010E2B6FC20E2C6F010E29
:0612EC002D6F006A1200E4
:1012F2005DD00101A2B102D0929401D092840F017B
:1013020025957AD00101A2B102D0969601D0968697
:1013120073D00101A2B102D0969401D096846CD010
:101322000101A2B102D0949601D0948665D0010148
:10133200A2B102D0949801D094885ED00101A2B1EA
:1013420002D0949A01D0948A57D00101A2B102D05E
:10135200989001D0988050D00101A2B102D093940C
:1013620001D0938449D00101A2B102D0989401D056
:1013720098840F01239540D00101A2B102D0989226
:1013820001D098820F01239337D00101A2B102D07C
:10139200949601D0948630D00101A2B102D09498E3
:1013A20001D0948829D0010E006E28D00101A151EC
:1013B200000A9FE0A151010AA5E0A151020AA9E099
:1013C200A151030AADE0A151040AB1E0A151050AFD
:1013D200B5E0A151060AB9E0A151070ABDE0A15149
:1013E200080AC1E0A151090AC7E0A1510A0ACDE0E9
:0E13F200A1510B0AD1E0D7D7000E006E1200F9
:10140000A1C1A4F1A2C1A5F1A3C1A6F10BD0A00E68
:10141000C86E24DC44D0280EC86E20DC40D0040EF8
:10142000006E3FD0A4C1F6FFA5C1F7FFA6C1F8FF2B
:101430000900F5CF01F00900F5CF02F00900F5CF62
:1014400003F00900F5CF04F00450000A08E103504E
:10145000010A05E10250860A02E10150A00AD7E024
:10146000A4C1F6FFA5C1F7FFA6C1F8FF0900F5CF9B
:1014700001F00900F5CF02F00900F5CF03F00900F3
:10148000F5CF04F00450000A08E10350060A05E114
:1014900002501A0A02E10150800ABDE0C0D7000ED6
:0414A000006E1200C8
:1014A40059D00101A2B102D0929001D092800F01D3
:1014B400259176D00101A2B102D0949001D09480FC
:1014C4006FD00101A2B102D0969001D0968068D06D
:1014D4000101A2B102D0949601D0948661D0010199
:1014E400A2B102D0949801D094885AD00101A2B13B
:1014F40002D0949A01D0948A53D00101A2B102D0AF
:10150400949201D094824CD00101A2B102D0939064
:1015140001D0938045D00101A2B102D0949E01D0A4
:10152400948E3ED00101A2B102D0949C01D0948C3F
:1015340037D00101A2B102D0949601D0948630D064
:101544000101A2B102D0949801D0948829D0010E4F
:10155400006E28D00101A151000AA3E0A151010AA3
:10156400A9E0A151020AADE0A151030AB1E0A151E1
:10157400040AB5E0A151050AB9E0A151060ABDE08B
:10158400A151070AC1E0A151080AC5E0A151090A05
:10159400C9E0A1510A0ACDE0A1510B0AD1E0D7D785
:0615A400000E006E1200B3
:1015AA0059D00101A2B102D0929201D092820F01C8
:1015BA00259376D00101A2B102D0929801D09288E7
:1015CA006FD00101A2B102D0969201D0968268D062
:1015DA000101A2B102D0949601D0948661D0010192
:1015EA00A2B102D0949801D094885AD00101A2B134
:1015FA0002D0949A01D0948A53D00101A2B102D0A8
:10160A00949401D094844CD00101A2B102D0939257
:10161A0001D0938245D00101A2B102D0949E01D09B
:10162A00948E3ED00101A2B102D0949C01D0948C38
:10163A0037D00101A2B102D0949601D0948630D05D
:10164A000101A2B102D0949801D0948829D0010E48
:10165A00006E28D00101A151000AA3E0A151010A9C
:10166A00A9E0A151020AADE0A151030AB1E0A151DA
:10167A00040AB5E0A151050AB9E0A151060ABDE084
:10168A00A151070AC1E0A151080AC5E0A151090AFE
:10169A00C9E0A1510A0ACDE0A1510B0AD1E0D7D77E
:0616AA00000E006E1200AC
:1016B00027D0CF0EAF6EAC9402EC06F070D0670E60
:1016C000AF6EAC9402EC06F06AD0CF0EAF6EAC8475
:1016D00002EC06F064D0670EAF6EAC8402EC06F04C
:1016E0005ED0440EAF6EAC8402EC06F058D0220EF1
:1016F000AF6EAC8402EC06F052D0060E006E58D0ED
:101700000101000E006EA41908E10050A31905E1C3
:10171000120EA21902E1A151C00ACBE0000E006E28
:10172000A41908E10050A31905E1250EA21902E150
:10173000A151800AC4E0000E006EA41908E1005017
:10174000A31905E14B0EA21902E1A151000ABDE067
:10175000000E006EA41908E10050A31905E1960ED1
:10176000A21902E1A151000AB6E0000E006EA41910
:1017700008E10050A31905E1E10EA21902E1A1510F
:10178000000AAFE0A451000A08E1A351010A05E1F3
:10179000A251C20A02E1A151000AA9E0AED78A0E05
:1017A0002A6F010E2B6FC20E2C6F010E2D6F006A77
:0217B000120025
:1017B200070E0101A115016E01C0A1F10150000A3D
:1017C20002E1010EA16F030EAB6FA1C1ACF1F0EC0F
:0417D20005F012000C
:1017D600A1C1A4F1A2C1A5F1A3C1A6F10DD0A00E8D
:1017E600C86E2EEC06F045D0280EC86E2EEC06F01C
:1017F60040D0040E006E3FD0A4C1F6FFA5C1F7FF8E
:10180600A6C1F8FF0900F5CF01F00900F5CF02F0F7
:101816000900F5CF03F00900F5CF04F00450000AE3
:1018260008E10350010A05E10250860A02E101506F
:10183600A00AD5E0A4C1F6FFA5C1F7FFA6C1F8FF2F
:101846000900F5CF01F00900F5CF02F00900F5CF48
:1018560003F00900F5CF04F00450000A08E1035034
:10186600060A05E102501A0A02E10150800ABCE0AC
:08187600C0D7000E006E120045
:10187E00A1C1A4F1A2C1A5F1A3C1A6F10DD0A00EE4
:10188E00C86E2EEC06F045D0280EC86E2EEC06F073
:10189E0040D0040E006E3FD0A4C1F6FFA5C1F7FFE5
:1018AE00A6C1F8FF0900F5CF01F00900F5CF02F04F
:1018BE000900F5CF03F00900F5CF04F00450000A3B
:1018CE0008E10350010A05E10250860A02E10150C7
:1018DE00A00AD5E0A4C1F6FFA5C1F7FFA6C1F8FF87
:1018EE000900F5CF01F00900F5CF02F00900F5CFA0
:1018FE0003F00900F5CF04F00450000A08E103508C
:10190E00060A05E102501A0A02E10150800ABCE003
:08191E00C0D7000E006E12009C
:10192600050E0101AB6F87EC05F00F0E0014036E78
:10193600100E0014026E02C000F00032009E00324B
:10194600009E0032009E0032009E0A0E0002F3CF77
:0819560000F00350002612000E
:10195E00040E0101AB6F87EC05F00F0E0014036E41
:10196E00300E0014026E02C000F00032009E0032F3
:10197E00009E0032009E0032009E0A0E0002F3CF3F
:08198E0000F0035000261200D6
:101996000101A76BA86BA1C1A9F1A2C1AAF1800E92
:1019A600A219006E800E005C02E1000EA15D0BE242
:1019B600010EA76F000EA86FA1510008A96FA2C162
:1019C600AAF1000EAA57A9C1ABF1AAC1ACF1A3C1F5
:1019D600ADF1A4C1AEF1A7EC05F0060EA56F000EA1
:1019E600A66F000E006EA651005C02E1A55100082C
:1019F60019E2A551A325E16EA651A421E26E010EBE
:101A0600A55D006E000EA659016E0050A325E96E75
:101A16000150A421EA6EEECFE6FF010EA55F000E8F
:101A2600A65BDFD7A3C1E1FFA4C1E2FF200EE66EED
:101A3600A751A8111AE0A56BA66BA551A325E96EBF
:101A4600A651A421EA6EEE50200A03E1A54BA62B6F
:101A5600F4D7010EA55F000EA65BA551A325E16E86
:0C1A6600A651A421E26E2D0EE66E1200C7
:101A7200060E0101AB6F87EC05F00F0E0014036E2A
:101A8200F00E0014026E02C000F00032009E00321E
:101A9200009E0032009E0032009E0A0E0002F3CF2A
:081AA20000F0035000261200C1
:0C1AAA00030E0101AB6F87EC05F0120089
:101AB6003C0E046EA1C100F06AEC06F008C000F00E
:101AC60000C0A3F1A3C1A1F10A0E046EA3C100F0E8
:101AD6006AEC06F008C000F000C0A2F10A0E046E1F
:101AE600A3C100F06AEC06F000C0ACF10101AC370E
:101AF600AC91AC37AC91AC37AC91AC37AC91A25150
:0A1B0600AC13AB6BF0EC05F012001D
:101B1000020E0101AB6F87EC05F00F0E0014036E8F
:101B2000300E0014026E02C000F00032009E00323F
:101B3000009E0032009E0032009E0A0E0002F3CF8B
:081B400000F003500026120022
:101B48000101AB6B87EC05F00F0E0014036E700EED
:101B58000014026E02C000F00032009E0032009EA7
:101B68000032009E0032009E0A0E0002F3CF00F001
:061B7800035000261200DC
:101B7E00010E0101AB6F87EC05F00F0E0014036E22
:101B8E00700E0014026E02C000F00032009E003291
:101B9E00009E0032009E0032009E0A0E0002F3CF1D
:081BAE0000F0035000261200B4
:101BB600A1C1A4F1A2C1A5F10D0E0101A66F0A0EE5
:101BC600A76F3AD0A4C1ABF1A5C1ACF175EC05F095
:101BD6003ED0A4C1E9FFA5C1EAFFEE520AE0A4C1C6
:101BE600ABF1A5C1ACF175EC05F00101A44BA52B39
:101BF600F0D72DD0A4C1E9FFA5C1EAFFEE520AE055
:101C0600A4C1ABF1A5C1ACF175EC05F00101A44B83
:101C1600A52BF0D70101A60EAB6F010EAC6F75ECCC
:101C260005F0A70E0101AB6F010EAC6F75EC05F068
:101C36000ED0060E006E0CD00101A351000AC2E0C0
:101C4600A351010AC6E0A351020AD4E0F2D7006A02
:021C560012007A
:101C58003C0E046EA1C100F06AEC06F008C000F06A
:101C680000C0A3F1A3C1A1F10A0E046EA3C100F044
:101C78006AEC06F008C000F000C0A2F10A0E046E7B
:101C8800A3C100F06AEC06F000C0ACF10101AC376A
:101C9800AC91AC37AC91AC37AC91AC37AC91A251AC
:0C1CA800AC13010EAB6FF0EC05F0120065
:101CB4000101A36BA46BA1C103F0A2C104F0A1C1F3
:101CC40005F0A2C106F003C0E9FF04C0EAFFEE502C
:101CD400200A04E1A351A41101E110D0010EA36F65
:101CE400000EA46F03C0E9FF04C0EAFF05C0E1FFD2
:101CF40006C0E2FFEECFE6FF054A062A03C001F064
:101D040004C002F0034A042A01C0E9FF02C0EAFF4A
:101D1400EE50000AD8E1A1C100F0A2C101F0120006
:101D240017D09AC1A1F19BC1A2F152EC0AF01BD0C9
:101D34009AC1A1F19BC1A2F136DC15D09AC1A1F1DF
:101D44009BC1A2F179EC09F00ED0010E006E0BD00C
:101D540001019951000AE5E09951010AE9E099511C
:081D6400020AECE0F2D71200C4
:101D6C0099C1A1F120DD9AC1A1F11CEC08F09BC135
:101D7C00A1F145EC08F09CC1A1F19DC1A2F173EC5D
:041D8C0008F0120049
:101D90008CDE99C1E1FF9AC1E2FF00C0E6FFDFDD02
:101DA0009BC1E1FF9CC1E2FF00C0E6FFBCDD9DC11D
:101DB000E1FF9EC1E2FF00C0E6FF5BDE9FC1E1FFE5
:0E1DC000A0C1E2FF00C0E6FF000EE66E1200BA
:101DCE001CD09AC1A1F19BC1A2F19CC1A3F100EC60
:101DDE000AF01ED09AC1A1F19BC1A2F19CC1A3F140
:101DEE00F3DC16D09AC1A1F19BC1A2F19CC1A3F163
:101DFE003FDD0ED0010E006E0BD001019951000A8D
:101E0E00E0E09951010AE6E09951020AEBE0F2D7BF
:021E1E001200B0
:101E200001019951010A07E1EC0EA16F000EA26FAA
:101E3000020EA36FC0DE01019951020A07E1FF0EF5
:101E4000A16F000EA26F020EA36FB5DE01019951C2
:101E5000030A07E1C60EA16F000EA26F020EA36F68
:101E6000AADE01019951040A07E1D90EA16F000E03
:101E7000A26F020EA36F9FDE01019951050A07E1CF
:101E8000730EA16F000EA26F020EA36F94DE01010C
:101E90009951060A07E13F0EA16F000EA26F020ED4
:101EA000A36F89DE01019951070A07E12C0EA16F8A
:0C1EB000000EA26F020EA36F7EDE120077
:101EBC000101AB6B87EC05F07F0E00140101AC6FD8
:081ECC00AB6BF0EC05F0120015
:101ED4000A0E046E99C100F06AEC06F000C0A1F18C
:101EE400000E0101A26F3A0EA36F010EA46F51DD23
:101EF4003A0EA16F010EA26FDBDE3A0EA16F010E46
:101F0400A26F010EA36F55DE0A0E046E99C100F094
:101F14006AEC06F008C000F000C0A1F1000E010157
:101F2400A26F3A0EA36F010EA46F33DD3A0EA16FB8
:101F3400010EA26FBDDE3A0EA16F010EA26F010E5B
:061F4400A36F37DE12005E
:101F4A00090E0B6E1E0E0C6EE40E0D6E0D2EFED7D4
:0C1F5A000C2EFCD70B2EFAD70000120052
:101F6600D4DD99C1E1FF9AC1E2FF00C0E6FF04DEBD
:101F76009BC1E1FF9CC1E2FF00C0E6FFE2DD9DC11F
:0C1F8600E1FF9EC1E2FF00C0E6FF120078
:101F920099C1A1F1D4EC08F09AC1A1F15CDE9BC118
:061FA200A1F188DD120030
:101FA8002FD09AC1A1F19BC1A2F19CC1A3F19DC1FF
:101FB800A4F158EC0BF032D09AC1A1F19BC1A2F167
:101FC8009CC1A3F19DC1A4F1FEEC08F027D09AC1F1
:101FD800A1F19BC1A2F19CC1A3F19DC1A4F189EC1F
:101FE80007F01CD09AC1A1F19BC1A2F19CC1A3F139
:101FF8009DC1A4F1A6EC06F011D0010E006E0ED022
:1020080001019951000ACDE09951010AD5E0995191
:0E201800020ADDE09951100AE5E0EFD7120050
:102026009FC188F19CC1A1F19DC1A2F19EC1A3F1FE
:1020360021EC07F099C1A1F19AC1A2F19BC1A3F1CC
:06204600B4EC08F01200EA
:10204C000900F5CFE6FF0006FBE10106F9E11200FD
:10205C000101996B070E9A6F010E9B6F5DDE0101FA
:10206C00996BA50E9A6F230E9B6F000E9C6FA9DEC9
:10207C00100E0101996F800E9A6F250E9B6F000E4A
:0A208C009C6F9D6F8BDF5BDF12007D
:10209600150E0101996F010E9A6F160E9B6F010EB8
:1020A6009C6F190E9D6F010E9E6F5ADF180E01016F
:1020B600996F010E9A6F170E9B6F010E9C6F140E8F
:1020C6009D6F010E9E6F120E9F6F010EA06F5DDE5B
:1020D6001E500101191966E0150EA16F000EA26FC0
:1020E600010EA36F65DD15C199F1F1DE1F0E010129
:1020F600A16F000EA26F010EA36F5ADD16C199F1F2
:10210600E6DE2A0E0101A16F000EA26F010EA36F7B
:102116004FDD19C199F1DBDE290E0101A16F000E19
:10212600A26F020EA36F44DD18C199F176DE210E6F
:102136000101A16F000EA26F010EA36F39DD17C159
:1021460099F1C5DE5B0E0101A16F000EA26F010EB3
:10215600A36F2EDD14C199F1BADE590E0101A16FEC
:10216600000EA26F010EA36F23DD560E0101A16FB3
:10217600000EA26F010EA36F1BDD12C199F1A7DE3F
:102186005D0E0101A16F000EA26F020EA36F10DD9E
:102196005F0E0101A16F000EA26F020EA36F08DD94
:0621A60019C11EF0120039
:1021AC00310E0101996F230E9A6F000E9B6F910EE9
:1021BC009C6F230E9D6F000E9E6F680E9F6F2DDF20
:1021CC00B20EA16F000EA26F020EA36FEEDC860E94
:1021DC000101A16F000EA26F020EA36FE6DC9A0E36
:1021EC000101A16F000EA26F020EA36FDEDC170EB1
:1021FC000101996F3B0E9A6F320E9B6FC4DE010E7C
:10220C000101996F1F0E9A6F0C0E9B6FE20E9C6F63
:0A221C00070E9D6FA5DD4CDE1200D9
:0E222600D5EC11F018DFBFDF33DFFED7FFD796
:1023AA0010EE15F0FD0E006E010E016E340EF66E83
:0E23BA00220EF76E000EF86E26EC10F01200E8
:092234002054696D65203A200078
:01223D0000A0
:02223E003A0064
:0822400020446174653A20009E
:012248000095
:022249003A0059
:10224B0020202020202053756E64617920202020CF
:03225B0020200040
:10225E002020202020536174757264617920202023
:03226E002020002D
:042271000000000069
:0322750032300004
:022278002E0036
:02227A002E0034
:02227C002E0032
:10227E002D2D2D2D2D2D2D2D2D2D2D2D2D2D2D2D80
:04228E002D2D2D00C5
:10229200202020202020467269646179202020209D
:0322A200202000F9
:1022A50020202020525443203220436C69636B2048
:0422B50020202000C5
:1022B9002D2D2D2D2D2D2D2D2D2D2D2D2D2D2D2D45
:0422C9002D2D2D008A
:0422CD00000000000D
:1022D1002D2D2D2D2D2D2D2D2D2D2D2D2D2D2D2D2D
:0422E1002D2D2D0072
:1022E50020202020205765646E6573646179202065
:0322F500202000A6
:1022F8002020202020546875727364617920202082
:0323080020200092
:10230B002020202020204D6F6E646179202020201A
:03231B002020007F
:10231E0020202020202054756573646179202020B0
:03232E002020006C
:10233100A601C2019801C2016C01C2014201C201A0
:102341003401C2015E01C2015001C2010802C20191
:10235100FA01C2012402C2011602C201EC01C2014A
:102361005E07000018080000DE080000D408000025
:10237100EC020000E8080000540700000003000020
:102381000A03000026030000F2080000F602000024
:102391006807000044030000FA0600004803BC017E
:0423A100A205BC01D4
:0423A500A08601000D
:020000040030CA
:0E00000015137F7CF98B91FFFFC0FFE0FF40DE
:00000001FF
